:030000000207AE46
:10000300C0F9A4B0999282F880903FFF7A2D79FAD3
:1000130078FAD8FED9FADAF622900003E53B540FBA
:1000230093F58EE53BC4540F93F58FE53A540F9344
:10003300F593E53AC4540F93F594E539540F93F5CA
:0A00430091E539C4540F93F59222A1
:10004D00D283439A06539AFEC28222C0E079007A87
:10005D0008E833F89281D282A280E933F9C282DABC
:10006D00F0D0E022C2837801120058E5F0C454F0BC
:10007D00D2E7F8120058E95403FF7855120058E9F9
:04008D00FED28322FA
:10009100C0E0C0D0C000E4F539F53AF53B7810E591
:1000A10036A2E7E53533F535E53633F536E539354D
:1000B10039D4F539E53A353AD4F53AE53B353BD40F
:1000C100F53BD8DBD000D0D0D0E02213C0D030E750
:1000D1000224D030E30224FDD0D022C0E0C0D0C041
:1000E10000C039C03AC03B7810C3E53B1200CCF5E3
:1000F1003BE53A1200CCF53AE5391200CCF539E589
:100101003613F536E53513F535D8DED03BD03AD088
:1001110039D000D0D0D0E022C0E0C0D0E5352537BD
:10012100F535E5363538F536D0D0D0E022C0E0C01F
:10013100D0C3E5359537F535E5369538F536D0D068
:10014100D0E022C0E0C0D0C3E5359537E53695381B
:100151009200D0D0D0E022C0E0C0D0C3E5379535C1
:10016100E53895369200D0D0D0E022C0E0C0D0C2B0
:1001710000C3E53795357008E53895367002D20031
:10018100D0D0D0E02212016C2000030201582212CB
:10019100016C20000302014422C0E0C0F0C0D0C0C5
:1001A10000C001E5358537F0A4F8A9F0E5368537BB
:1001B100F0A429F9E435F0FAE5358538F0A429F9F8
:1001C10089368835D001D000D0D0D0F0D0E022C01F
:1001D100E0C0F0C0D0C000C001C002C00378807A86
:1001E100087B00EB48FBF5F0A4C39535F9E5F095E4
:1001F1003649600D50028004E8F45BFBE803F8DA4D
:10020100E28B35753600D003D002D001D000D0D0BA
:10021100D0F0D0E022C0E0C0D0C000C001C0027A5E
:1002210010E4F8F9C3E53533F535E53633F536E84D
:1002310033F8E933F9C3E89537E99538400BE89588
:1002410037F8E99538F9433501DAD9D002D001D030
:1002510000D0D0D0E02285353785363822E535C546
:0A02610037F535E536C538F53622CD
:10026B00E7E7E6E6E5E5E4E4E3E3E2E2E1E1E0E04B
:10027B00DFDFDEDEDDDDDCDCDBDBDADADAD9D9D8B9
:10028B00D8D7D7D6D6D5D5D4D4D3D3D2D2D1D1D023
:10029B00D0CFCFCECECDCDCCCCCBCBCACAC9C9C893
:1002AB00C8C7C7C6C6C5C5C4C4C4C3C3C2C2C1C1FF
:1002BB00C0C0BFBFBEBEBDBDBCBCBBBBBABAB9B96B
:1002CB00B8B8B7B7B6B6B5B5B4B4B3B3B2B2B1B1DB
:1002DB00B0B0AFAFAFAEAEADADACACABABAAAAA945
:1002EB00A9A8A8A7A7A6A6A5A5A4A4A3A3A2A2A1B3
:1002FB00A1A0A09F9F9E9E9D9D9C9C9B9B9A9A9923
:10030B00999998989797969695959494939392928A
:10031B00919190908F8F8E8E8D8D8C8C8B8B8A8AFA
:10032B008989888887878686858584848383838269
:10033B0082818180807F7F7E7E7D7D7C7C7B7B7AD2
:10034B007A79797878777776767575747473737242
:10035B0072717170706F6F6E6E6D6D6D6C6C6B6BAF
:10036B006A6A69696868676766666565646463631A
:10037B006262616160605F5F5E5E5D5D5C5C5B5B8A
:10038B005A5A5959585858575756565555545453F5
:10039B00535252515150504F4F4E4E4D4D4C4C4B62
:1003AB004B4A4A49494848474746464545444443D2
:1003BB0043424242414140403F3F3E3E3D3D3C3C3B
:1003CB003B3B3A3A393938383737363635353434AA
:1003DB0033333232313130302F2F2E2E2D2D2C2C1A
:1003EB002C2B2B2A2A292928282727262625252482
:1003FB002423232222212120201F1F1E1E1D1D1CF2
:10040B001C1B1B1A1A19191818171717161615155E
:10041B00141413131212111110100F0F0E0E0D0DC9
:10042B000C0C0B0B0A0A0909080807070606050539
:10043B000404030302020101010000010102020393
:10044B00030404050506060707080809090A0A0B31
:10045B000B0C0C0D0D0E0E0F0F10101111121213A1
:10046B0013141415151516161717181819191A1A17
:10047B001B1B1C1C1D1D1E1E1F1F20202121222289
:10048B0023232424252526262727282829292A2AF9
:10049B002B2B2B2C2C2D2D2E2E2F2F303031313270
:1004AB003233333434353536363737383839393AE1
:1004BB003A3B3B3C3C3D3D3E3E3F3F404040414153
:1004CB0042424343444445454646474748484949C9
:1004DB004A4A4B4B4C4C4D4D4E4E4F4F5050515139
:1004EB00525253535454555556C390026BE58239AF
:0B04FB00F582E58338F583E493F822D6
:1005060000000027004F0077009E00C600EE011590
:10051600013D0165018D01B501DD0205022D025582
:10052600027D02A502CE02F6031E0346036F039761
:1005360003C003E8041104390462048B04DC0505D6
:10054600052E0556057F05A805D105FA0623064C96
:100556000675069E06C706F007190742076B07953C
:1005660007BE0810083A0863088C08B608DF0908B1
:100576000932095B098409AE09D70A010A2A0A5415
:100586000A7D0AA70AD00AFA0B230B4D0B760BA09D
:100596000BC90BF30C1C0C460C700C990CC30CEC21
:1005A6000D160D3F0D690D920DBC0DE50E0F0E38A3
:1005B6000E620E8B0EB50EDE0F080F310F5B0F8429
:1005C6000FAD0FD71000102A1053107C10A610CFB5
:1005D60010F81121114B1174119D11C611EF12194A
:1005E6001242126B129412BD12E6130F13381361E6
:1005F600138A13B313DC1404142D1456147F14A891
:1006060014D014F91522154A1573159C15ED1615F7
:10061600163E16671667168F16B716E017081731B7
:100626001759178117AA17D217FA1823184B1873D8
:10063600189B18C318EC1914193C1964198C19B4B1
:1006460019DC1A041A2D1A551A7D1AA51ACD1AF58F
:100656001B1D1B451B6D1B941BBC1BE41C0C1C3477
:100666001C5C1C841CAC1CD41CFC1D241D4C1D7461
:100676001D9B1DC31DEB1E131E3B1E631E8B1EB34F
:100686001EDB1F031F2B1F531F7B1FA31FCA1FF237
:10069600201A2042206A209220BA20E2210A213321
:1006A600215B218321AB21D321FB2223224B227301
:1006B600229C22C422EC2314233C2365238D23B5DC
:1006C60023DD2406242E2456247F24A724CF24F8B1
:1006D600252025492571259A25C225EB25FB2613BC
:1006E600263C2664268D26B526DE26F42707272FE8
:1006F6002758278127A97D00900506E493FEE4A3E9
:1007060093FFC3EF99EE9850050DA3BDFAEDEDF8F2
:1007160022C3900506E875F002A42582F582E5F06D
:0C0726003583F583E493F8A3E493F922F3
:100732008935883675370A75380012019AA836A9A4
:10074200352275F0001200718F328E3375F001126E
:1007520000718F308E3122C000C001EAF8EBF9122D
:10076200073288388937D001D0001204F4120717F3
:0F07720088368935120119A836A9351206FC22DE
:10078100C2CA75C83075CBFF75CAF7D2CA759852FF
:10079100223099FDC299F59922E4936006120792DD
:0907A100A380F622E8120792225F
:0407AA001207A5226B
:1007AE0075817F75E800759500759E0075F800439C
:1007BE009A3812004D1207811207448531F8A8327B
:1007CE00A933AA30AB3112075988E888357536003F
:0B07DE0012009112001C12000F80DDC1
:00000001FF
