:030000000208F5FE
:03001B000200D50B
:10001E00C0F9A4B0999282F880903FFF7A2D79FAB8
:10002E0078FAD8FED9FADAF62290001EE538540F87
:10003E0093F58EE538C4540F93F58FE537540F932F
:10004E00F593E537C4540F93F594E536540F93F5B5
:0A005E0091E536C4540F93F5922289
:10006800D283439A06539AFEC28222C0E079007A6C
:1000780008E833F89281D282A280E933F9C282DAA1
:10008800F0D0E022C2837801120073E5F0C454F086
:10009800D2E7F8120073E95403FF7855120073E9A8
:0400A800FED28322DF
:1000AC00C2CA75C83075CBFF75CAF7D2CA759852DB
:1000BC00223099FDC299F59922E49360061200BD95
:0900CC00A380F622E81200BD2217
:1000D500C0D0C0E0C082C08385398D853A8BD0837E
:0B00E500D082D0E0D0D03222222222B4
:0200F0002222CA
:1000F200C0E0C0D0C000E4F536F537F5387810E539
:1001020033A2E7E53233F532E53333F533E53635FD
:1001120036D4F536E5373537D4F537E5383538D4C2
:10012200F538D8DBD000D0D0D0E02213C0D030E7F1
:100132000224D030E30224FDD0D022C0E0C0D0C0DF
:1001420000C036C037C0387810C3E53812012DF52B
:1001520038E53712012DF537E53612012DF536E572
:100162003313F533E53213F532D8DED038D037D039
:1001720036D000D0D0D0E022C0E0C0D0E532253465
:10018200F532E5333535F533D0D0D0E022C0E0C0CA
:10019200D0C3E5329534F532E5339535F533D0D019
:1001A200D0E022C0E0C0D0C3E5329534E5339535C6
:1001B2009200D0D0D0E022C0E0C0D0C3E534953266
:1001C200E53595339200D0D0D0E022C0E0C0D0C255
:1001D20000C3E53495327008E53595337002D200DC
:1001E200D0D0D0E0221201CD2000030201B92212A8
:1001F20001CD2000030201A522C0E0C0F0C0D0C0A2
:1002020000C001E5328534F0A4F8A9F0E533853465
:10021200F0A429F9E435F0FAE5328535F0A429F99C
:1002220089338832D001D000D0D0D0F0D0E022C0C3
:10023200E0C0F0C0D0C000C001C002C00378807A24
:10024200087B00EB48FBF5F0A4C39532F9E5F09585
:100252003349600D50028004E8F45BFBE803F8DAEE
:10026200E28B32753300D003D002D001D000D0D05F
:10027200D0F0D0E022C0E0C0D0C000C001C0027AFD
:1002820010E4F8F9C3E53233F532E53333F533E8F8
:1002920033F8E933F9C3E89534E99535400BE8952D
:1002A20034F8E99535F9433201DAD9D002D001D0D8
:1002B20000D0D0D0E02285323485333522E532C5F4
:0A02C20034F532E533C535F533227B
:0102CC00220F
:0102CD00220E
:0102CE00220D
:1002CF0027282829292A2B2B2C2C2D2E2E2F2F3067
:1002DF0031313232333334353536363738383939C0
:1002EF003A3B3B3C3C3D3D3E3F3F40404142424319
:1002FF0043444445464647474849494A4A4B4C4C74
:10030F004D4D4E4E4F5050515152535354545556CC
:10031F005657575858595A5A5B5B5C5D5D5E5E5F26
:10032F00606061616262636464656566676768687F
:10033F0069696A6B6B6C6C6D6E6E6F6F70717172D9
:10034F00727373747575767677787879797A7B7B33
:10035F007C7C7D7D7E7F7F8080818282838384858C
:10036F0085868687878889898A8A8B8C8C8D8D8EE6
:10037F008E8F909091919293939494959696979740
:10038F009898999A9A9B9B9C9D9D9E9E9FA0A0A199
:10039F00A1A2A2A3A4A4A5A5A6A7A7A8A8A9AAAAF3
:1003AF00ABABACACADAEAEAFAFB0B1B1B2B2B3B34D
:1003BF00B4B5B5B6B6B7B8B8B9B9BA2222759BFFFE
:1003CF009002CFC3E58228F582E5833400F583E4FC
:0403DF0093F59022E0
:0103E30022F7
:1003E400E7E7E6E6E5E5E4E4E3E3E2E2E1E1E0E0D1
:1003F400DFDFDEDEDDDDDCDCDBDBDADADAD9D9D83F
:10040400D8D7D7D6D6D5D5D4D4D3D3D2D2D1D1D0A8
:10041400D0CFCFCECECDCDCCCCCBCBCACAC9C9C818
:10042400C8C7C7C6C6C5C5C4C4C4C3C3C2C2C1C184
:10043400C0C0BFBFBEBEBDBDBCBCBBBBBABAB9B9F0
:10044400B8B8B7B7B6B6B5B5B4B4B3B3B2B2B1B160
:10045400B0B0AFAFAFAEAEADADACACABABAAAAA9CA
:10046400A9A8A8A7A7A6A6A5A5A4A4A3A3A2A2A138
:10047400A1A0A09F9F9E9E9D9D9C9C9B9B9A9A99A8
:100484009999989897979696959594949393929210
:10049400919190908F8F8E8E8D8D8C8C8B8B8A8A80
:1004A40089898888878786868585848483838382EF
:1004B40082818180807F7F7E7E7D7D7C7C7B7B7A58
:1004C4007A797978787777767675757474737372C8
:1004D40072717170706F6F6E6E6D6D6D6C6C6B6B35
:1004E4006A6A6969686867676666656564646363A0
:1004F4006262616160605F5F5E5E5D5D5C5C5B5B10
:100504005A5A59595858585757565655555454537A
:10051400535252515150504F4F4E4E4D4D4C4C4BE7
:100524004B4A4A4949484847474646454544444357
:1005340043424242414140403F3F3E3E3D3D3C3CC0
:100544003B3B3A3A3939383837373636353534342F
:1005540033333232313130302F2F2E2E2D2D2C2C9F
:100564002C2B2B2A2A292928282727262625252407
:100574002423232222212120201F1F1E1E1D1D1C77
:100584001C1B1B1A1A1919181817171716161515E4
:10059400141413131212111110100F0F0E0E0D0D4F
:1005A4000C0C0B0B0A0A09090808070706060505BF
:1005B4000404030302020101010000010102020319
:1005C400030404050506060707080809090A0A0BB7
:1005D4000B0C0C0D0D0E0E0F0F1010111112121327
:1005E40013141415151516161717181819191A1A9D
:1005F4001B1B1C1C1D1D1E1E1F1F2020212122220F
:1006040023232424252526262727282829292A2A7E
:100614002B2B2B2C2C2D2D2E2E2F2F3030313132F5
:100624003233333434353536363737383839393A66
:100634003A3B3B3C3C3D3D3E3E3F3F4040404141D8
:10064400424243434444454546464747484849494E
:100654004A4A4B4B4C4C4D4D4E4E4F4F50505151BE
:10066400525253535454555556C39003E4E58239BA
:0B067400F582E58338F583E493F8225B
:10067F0000000027004F0077009E00C600EE011516
:10068F00013D0165018D01B501DD0205022D025508
:10069F00027D02A502CE02F6031E0346036F0397E7
:1006AF0003C003E8041104390462048B04DC05055C
:1006BF00052E0556057F05A805D105FA0623064C1C
:1006CF000675069E06C706F007190742076B0795C2
:1006DF0007BE0810083A0863088C08B608DF090837
:1006EF000932095B098409AE09D70A010A2A0A549B
:1006FF000A7D0AA70AD00AFA0B230B4D0B760BA023
:10070F000BC90BF30C1C0C460C700C990CC30CECA6
:10071F000D160D3F0D690D920DBC0DE50E0F0E3828
:10072F000E620E8B0EB50EDE0F080F310F5B0F84AE
:10073F000FAD0FD71000102A1053107C10A610CF3A
:10074F0010F81121114B1174119D11C611EF1219CF
:10075F001242126B129412BD12E6130F133813616B
:10076F00138A13B313DC1404142D1456147F14A816
:10077F0014D014F91522154A1573159C15ED16157D
:10078F00163E16671667168F16B716E0170817313D
:10079F001759178117AA17D217FA1823184B18735E
:1007AF00189B18C318EC1914193C1964198C19B437
:1007BF0019DC1A041A2D1A551A7D1AA51ACD1AF515
:1007CF001B1D1B451B6D1B941BBC1BE41C0C1C34FD
:1007DF001C5C1C841CAC1CD41CFC1D241D4C1D74E7
:1007EF001D9B1DC31DEB1E131E3B1E631E8B1EB3D5
:1007FF001EDB1F031F2B1F531F7B1FA31FCA1FF2BD
:10080F00201A2042206A209220BA20E2210A2133A6
:10081F00215B218321AB21D321FB2223224B227386
:10082F00229C22C422EC2314233C2365238D23B561
:10083F0023DD2406242E2456247F24A724CF24F836
:10084F00252025492571259A25C225EB25FB261341
:10085F00263C2664268D26B526DE26F42707272F6D
:10086F002758278127A97D0090067FE493FEE4A3F4
:10087F0093FFC3EF99EE9850050DA3BDFAEDEDF878
:10088F0022C390067FE875F002A42582F582E5F079
:0C089F003583F583E493F8A3E493F92279
:1008AB0085DC3285DB3375340A7535001201FBA804
:1008BB0033A9322275F00012008C8FDD8EDE75F0BD
:1008CB000112008C8FDB8EDC221208BF1208AB8862
:1008DB0035893412066D1208908833893212017AE9
:0A08EB00A833A932120875883022E4
:1008F50075817F75E800759500759E0075F8004354
:100905009A381200681200AC1208D488E88832754B
:0D09150033001200F212003712002A80EBAE
:00000001FF
