:030000000207E410
:03001B000200D50B
:10001E00C0F9A4B0999282F880903FFF7A2D79FAB8
:10002E0078FAD8FED9FADAF62290001EE53C540F83
:10003E0093F58EE53CC4540F93F58FE53B540F9327
:10004E00F593E53BC4540F93F594E53A540F93F5AD
:0A005E0091E53AC4540F93F5922285
:10006800D283439A06539AFEC28222C0E079007A6C
:1000780008E833F89281D282A280E933F9C282DAA1
:10008800F0D0E022C2837801120073E5F0C454F086
:10009800D2E7F8120073E95403FF7855120073E9A8
:0400A800FED28322DF
:1000AC00C2CA75C83075CBFF75CAF7D2CA759852DB
:1000BC00223099FDC299F59922E49360061200BD95
:0900CC00A380F622E81200BD2217
:1000D500C0D0C0E0C082C083853D8D853E8BD08376
:0B00E500D082D0E0D0D03222222222B4
:0200F0002222CA
:1000F200C0E0C0D0C000E4F53AF53BF53C7810E52D
:1001020037A2E7E53633F536E53733F537E53A35E5
:100112003AD4F53AE53B353BD4F53BE53C353CD4A6
:10012200F53CD8DBD000D0D0D0E02213C0D030E7ED
:100132000224D030E30224FDD0D022C0E0C0D0C0DF
:1001420000C03AC03BC03C7810C3E53C12012DF51B
:100152003CE53B12012DF53BE53A12012DF53AE55E
:100162003713F537E53613F536D8DED03CD03BD021
:100172003AD000D0D0D0E022C0E0C0D0E536253859
:10018200F536E5373539F537D0D0D0E022C0E0C0BA
:10019200D0C3E5369538F536E5379539F537D0D001
:1001A200D0E022C0E0C0D0C3E5369538E5379539B6
:1001B2009200D0D0D0E022C0E0C0D0C3E53895365E
:1001C200E53995379200D0D0D0E022C0E0C0D0C24D
:1001D20000C3E53895367008E53995377002D200CC
:1001E200D0D0D0E0221201CD2000030201B92212A8
:1001F20001CD2000030201A522C0E0C0F0C0D0C0A2
:1002020000C001E5368538F0A4F8A9F0E537853855
:10021200F0A429F9E435F0FAE5368539F0A429F994
:1002220089378836D001D000D0D0D0F0D0E022C0BB
:10023200E0C0F0C0D0C000C001C002C00378807A24
:10024200087B00EB48FBF5F0A4C39536F9E5F09581
:100252003749600D50028004E8F45BFBE803F8DAEA
:10026200E28B36753700D003D002D001D000D0D057
:10027200D0F0D0E022C0E0C0D0C000C001C0027AFD
:1002820010E4F8F9C3E53633F536E53733F537E8E8
:1002920033F8E933F9C3E89538E99539400BE89525
:1002A20038F8E99539F9433601DAD9D002D001D0CC
:1002B20000D0D0D0E02285363885373922E536C5E0
:0A02C20038F536E537C539F5372267
:0102CC00220F
:0102CD00220E
:0102CE00220D
:1002CF00E7E7E6E6E5E5E4E4E3E3E2E2E1E1E0E0E7
:1002DF00DFDFDEDEDDDDDCDCDBDBDADADAD9D9D855
:1002EF00D8D7D7D6D6D5D5D4D4D3D3D2D2D1D1D0BF
:1002FF00D0CFCFCECECDCDCCCCCBCBCACAC9C9C82F
:10030F00C8C7C7C6C6C5C5C4C4C4C3C3C2C2C1C19A
:10031F00C0C0BFBFBEBEBDBDBCBCBBBBBABAB9B906
:10032F00B8B8B7B7B6B6B5B5B4B4B3B3B2B2B1B176
:10033F00B0B0AFAFAFAEAEADADACACABABAAAAA9E0
:10034F00A9A8A8A7A7A6A6A5A5A4A4A3A3A2A2A14E
:10035F00A1A0A09F9F9E9E9D9D9C9C9B9B9A9A99BE
:10036F009999989897979696959594949393929226
:10037F00919190908F8F8E8E8D8D8C8C8B8B8A8A96
:10038F008989888887878686858584848383838205
:10039F0082818180807F7F7E7E7D7D7C7C7B7B7A6E
:1003AF007A797978787777767675757474737372DE
:1003BF0072717170706F6F6E6E6D6D6D6C6C6B6B4B
:1003CF006A6A6969686867676666656564646363B6
:1003DF006262616160605F5F5E5E5D5D5C5C5B5B26
:1003EF005A5A595958585857575656555554545391
:1003FF00535252515150504F4F4E4E4D4D4C4C4BFE
:10040F004B4A4A494948484747464645454444436D
:10041F0043424242414140403F3F3E3E3D3D3C3CD6
:10042F003B3B3A3A39393838373736363535343445
:10043F0033333232313130302F2F2E2E2D2D2C2CB5
:10044F002C2B2B2A2A29292828272726262525241D
:10045F002423232222212120201F1F1E1E1D1D1C8D
:10046F001C1B1B1A1A1919181817171716161515FA
:10047F00141413131212111110100F0F0E0E0D0D65
:10048F000C0C0B0B0A0A09090808070706060505D5
:10049F00040403030202010101000001010202032F
:1004AF00030404050506060707080809090A0A0BCD
:1004BF000B0C0C0D0D0E0E0F0F101011111212133D
:1004CF0013141415151516161717181819191A1AB3
:1004DF001B1B1C1C1D1D1E1E1F1F20202121222225
:1004EF0023232424252526262727282829292A2A95
:1004FF002B2B2B2C2C2D2D2E2E2F2F30303131320C
:10050F003233333434353536363737383839393A7C
:10051F003A3B3B3C3C3D3D3E3E3F3F4040404141EE
:10052F004242434344444545464647474848494964
:10053F004A4A4B4B4C4C4D4D4E4E4F4F50505151D4
:10054F00525253535454555556C39002CFE58239E6
:0B055F00F582E58338F583E493F82271
:10056A0000000027004F0077009E00C600EE01152C
:10057A00013D0165018D01B501DD0205022D02551E
:10058A00027D02A502CE02F6031E0346036F0397FD
:10059A0003C003E8041104390462048B04DC050572
:1005AA00052E0556057F05A805D105FA0623064C32
:1005BA000675069E06C706F007190742076B0795D8
:1005CA0007BE0810083A0863088C08B608DF09084D
:1005DA000932095B098409AE09D70A010A2A0A54B1
:1005EA000A7D0AA70AD00AFA0B230B4D0B760BA039
:1005FA000BC90BF30C1C0C460C700C990CC30CECBD
:10060A000D160D3F0D690D920DBC0DE50E0F0E383E
:10061A000E620E8B0EB50EDE0F080F310F5B0F84C4
:10062A000FAD0FD71000102A1053107C10A610CF50
:10063A0010F81121114B1174119D11C611EF1219E5
:10064A001242126B129412BD12E6130F1338136181
:10065A00138A13B313DC1404142D1456147F14A82C
:10066A0014D014F91522154A1573159C15ED161593
:10067A00163E16671667168F16B716E01708173153
:10068A001759178117AA17D217FA1823184B187374
:10069A00189B18C318EC1914193C1964198C19B44D
:1006AA0019DC1A041A2D1A551A7D1AA51ACD1AF52B
:1006BA001B1D1B451B6D1B941BBC1BE41C0C1C3413
:1006CA001C5C1C841CAC1CD41CFC1D241D4C1D74FD
:1006DA001D9B1DC31DEB1E131E3B1E631E8B1EB3EB
:1006EA001EDB1F031F2B1F531F7B1FA31FCA1FF2D3
:1006FA00201A2042206A209220BA20E2210A2133BD
:10070A00215B218321AB21D321FB2223224B22739C
:10071A00229C22C422EC2314233C2365238D23B577
:10072A0023DD2406242E2456247F24A724CF24F84C
:10073A00252025492571259A25C225EB25FB261357
:10074A00263C2664268D26B526DE26F42707272F83
:10075A002758278127A97D0090056AE493FEE4A320
:10076A0093FFC3EF99EE9850050DA3BDFAEDEDF88E
:10077A0022C390056AE875F002A42582F582E5F0A5
:0C078A003583F583E493F8A3E493F9228F
:1007960085313685303775380A7539001201FBA860
:1007A60037A9362275F00012008C8F328E3375F021
:1007B6000112008C8F308E31221207AA12079688FA
:1007C600398938A832A93312055812077B88378928
:0E07D6003612017AA837A9361207608834223D
:1007E40075817F75E800759500759E0075F8004366
:1007F4009A381200681200AC1207BF88E888367570
:0D08040037001200F212003712002A80EBBC
:00000001FF
